:0400000007EF00F016
:0A0008001A825FED05F036EF05F0F7
:1008000000546F6D616E646F206D756573747261F5
:10081000004269656E76656E69646F2042504D00D6
:0108200000D7
:10082200240EAC6E900EAB6E080EB86E190EAF6E43
:10083200000E936E000E8A6E000E956E000E8C6E88
:10084200000E966E000E8C6E010ED56E0B0ED76EDC
:10085200DC0ED66EF294F28A010EC26E0E0EC16EDC
:10086200800EC06EF28ED58E020E186E450E176E79
:10087200AA0EE82EFED7172EFCD7182EFAD7080E8E
:100882006EEC05F06FEC04F090EC05F0110E146EB6
:10089200F0EC04F0020E186EE70E176E000EE82E52
:1008A200FED7172EFCD7182EFAD700D090EC05F001
:1008B200010E146EF0EC04F0000E4CEC05F00FC0CB
:1008C20007F010C008F00750A1EC05F0040E176EF7
:1008D2003E0EE82EFED7172EFCD7EED78D90040ED3
:1008E2001918D8A404D08C500F0B300901D03F0E38
:1008F2008C6E9AEC05F0010EBDEC04F0040E191892
:10090200D8A404D08C500F0B300901D03F0E8C6E4E
:100912009AEC05F0030EBDEC04F0040E1918D8A4ED
:1009220004D08C500F0B300901D03F0E8C6E9AEC24
:1009320005F0040EBDEC04F0040E1918D8A411D071
:100942008C500F0B20098C6E9AEC05F0040EBDEC56
:1009520004F02F0E13EC05F09AEC05F0040EBDEC3A
:1009620004F090EC05F00F0E13EC05F09AEC05F094
:10097200040EBDEC04F01200106E23D0620E0F6E56
:10098200660EE82EFED70F2EFCD71200070E0F6E52
:100992007D0EE82EFED70F2EFCD700F0050E0F6E4F
:1009A200260EE82EFED70F2EFCD700D01200A60E80
:1009B200E82EFED700D01200420EE82EFED700D05D
:1009C20012001050010AD8B4D9D7030AD8B4DED71E
:1009D200010AD8B4ECD7070AD8A41200EDD7000E4A
:1009E200166E13D014501624156E15C0F6FF080E9D
:1009F200F76E0800F5507AEC05F0162A140E161858
:100A0200D8A403D0C00E85EC05F014501624156E40
:100A120015C0F6FF080EF76E0800F5500009D8B4AD
:100A22001200E0D7126E040E1918D8A417D012C003
:100A320011F0F00E11168C500F0B11108C6E9AECF7
:100A420005F0010EBDEC04F012C011F0113AF00EE7
:100A520011168C500F0B11108C6E1200080E191803
:100A6200D8A4120012C08CFF12004E0EF66E0B0EAE
:100A7200F76E000EF86E0900F5CF19F000EE01F0E6
:100A82000E0EEE6AE806FDE11A901A92000EF86E5A
:100A9200000111EF04F0126E12C011F0D89011365D
:100AA200D8901136C250030B1110C26EC282C2B26C
:100AB200FED7C3CF0FF0C4CF10F012000600F2A48D
:100AC2000AD00B0ED76EDC0ED66EF2948AB002D02C
:100AD2008A8001D08A901A9211000F6E040E0F18AC
:100AE200D8B404D0080E0F18D8A412000FC019F001
:100AF2001200136E8D80135013EC05F09AEC05F082
:100B0200040EBDEC04F01200136E8D90135013EC22
:100B120005F09AEC05F0040EBDEC04F012008D9085
:100B2200010E13EC05F09AEC05F0020EBDEC04F098
:100B320012008D82420EE82EFED700D08D92120056
:0D0B42000F6EACA2FED70FC0ADFF12000871
:020000040020DA
:08000000FFFFFFFFFFFFFFFF00
:020000040030CA
:0E00000000091F1EFF8181FF0FC00FE00F409F
:00000001FF
